{"contracts/CertificateRegistry.sol":{"CertificateRegistry":{"abi":[{"anonymous":false,"inputs":[{"indexed":true,"internalType":"bytes32","name":"certHash","type":"bytes32"},{"indexed":true,"internalType":"address","name":"issuer","type":"address"}],"name":"CertificateIssued","type":"event"},{"inputs":[{"internalType":"bytes32","name":"certHash","type":"bytes32"}],"name":"issueCertificate","outputs":[],"stateMutability":"nonpayable","type":"function"},{"inputs":[{"internalType":"bytes32","name":"","type":"bytes32"}],"name":"issued","outputs":[{"internalType":"bool","name":"","type":"bool"}],"stateMutability":"view","type":"function"},{"inputs":[{"internalType":"bytes32","name":"certHash","type":"bytes32"}],"name":"verifyCertificate","outputs":[{"internalType":"bool","name":"","type":"bool"}],"stateMutability":"view","type":"function"}],"evm":{"bytecode":{"linkReferences":{},"object":"608060405234801561001057600080fd5b506101db806100206000396000f3fe608060405234801561001057600080fd5b50600436106100415760003560e01c8063850c176814610046578063a1f818241461007d578063c59a138b14610092575b600080fd5b61006961005436600461018c565b60009081526020819052604090205460ff1690565b604051901515815260200160405180910390f35b61009061008b36600461018c565b6100b5565b005b6100696100a036600461018c565b60006020819052908152604090205460ff1681565b806100f65760405162461bcd60e51b815260206004820152600c60248201526b0929cac82989288be9082a6960a31b60448201526064015b60405180910390fd5b60008181526020819052604090205460ff16156101465760405162461bcd60e51b815260206004820152600e60248201526d1053149150511657d254d4d5515160921b60448201526064016100ed565b600081815260208190526040808220805460ff1916600117905551339183917f11fb9f283c08b0122fe14bf3b5692d38f07282003f545f4bbc8b766ddcbda8329190a350565b60006020828403121561019e57600080fd5b503591905056fea264697066735822122014056f80498ab839ec0e4faa88a9d79a725e749e3eef3ccf861297957b4d13a264736f6c63430008180033","opcodes":"PUSH1 0x80 PUSH1 0x40 MSTORE CALLVALUE DUP1 ISZERO PUSH2 0x10 JUMPI PUSH1 0x0 DUP1 REVERT JUMPDEST POP PUSH2 0x1DB DUP1 PUSH2 0x20 PUSH1 0x0 CODECOPY PUSH1 0x0 RETURN INVALID PUSH1 0x80 PUSH1 0x40 MSTORE CALLVALUE DUP1 ISZERO PUSH2 0x10 JUMPI PUSH1 0x0 DUP1 REVERT JUMPDEST POP PUSH1 0x4 CALLDATASIZE LT PUSH2 0x41 JUMPI PUSH1 0x0 CALLDATALOAD PUSH1 0xE0 SHR DUP1 PUSH4 0x850C1768 EQ PUSH2 0x46 JUMPI DUP1 PUSH4 0xA1F81824 EQ PUSH2 0x7D JUMPI DUP1 PUSH4 0xC59A138B EQ PUSH2 0x92 JUMPI JUMPDEST PUSH1 0x0 DUP1 REVERT JUMPDEST PUSH2 0x69 PUSH2 0x54 CALLDATASIZE PUSH1 0x4 PUSH2 0x18C JUMP JUMPDEST PUSH1 0x0 SWAP1 DUP2 MSTORE PUSH1 0x20 DUP2 SWAP1 MSTORE PUSH1 0x40 SWAP1 KECCAK256 SLOAD PUSH1 0xFF AND SWAP1 JUMP JUMPDEST PUSH1 0x40 MLOAD SWAP1 ISZERO ISZERO DUP2 MSTORE PUSH1 0x20 ADD PUSH1 0x40 MLOAD DUP1 SWAP2 SUB SWAP1 RETURN JUMPDEST PUSH2 0x90 PUSH2 0x8B CALLDATASIZE PUSH1 0x4 PUSH2 0x18C JUMP JUMPDEST PUSH2 0xB5 JUMP JUMPDEST STOP JUMPDEST PUSH2 0x69 PUSH2 0xA0 CALLDATASIZE PUSH1 0x4 PUSH2 0x18C JUMP JUMPDEST PUSH1 0x0 PUSH1 0x20 DUP2 SWAP1 MSTORE SWAP1 DUP2 MSTORE PUSH1 0x40 SWAP1 KECCAK256 SLOAD PUSH1 0xFF AND DUP2 JUMP JUMPDEST DUP1 PUSH2 0xF6 JUMPI PUSH1 0x40 MLOAD PUSH3 0x461BCD PUSH1 0xE5 SHL DUP2 MSTORE PUSH1 0x20 PUSH1 0x4 DUP3 ADD MSTORE PUSH1 0xC PUSH1 0x24 DUP3 ADD MSTORE PUSH12 0x929CAC82989288BE9082A69 PUSH1 0xA3 SHL PUSH1 0x44 DUP3 ADD MSTORE PUSH1 0x64 ADD JUMPDEST PUSH1 0x40 MLOAD DUP1 SWAP2 SUB SWAP1 REVERT JUMPDEST PUSH1 0x0 DUP2 DUP2 MSTORE PUSH1 0x20 DUP2 SWAP1 MSTORE PUSH1 0x40 SWAP1 KECCAK256 SLOAD PUSH1 0xFF AND ISZERO PUSH2 0x146 JUMPI PUSH1 0x40 MLOAD PUSH3 0x461BCD PUSH1 0xE5 SHL DUP2 MSTORE PUSH1 0x20 PUSH1 0x4 DUP3 ADD MSTORE PUSH1 0xE PUSH1 0x24 DUP3 ADD MSTORE PUSH14 0x1053149150511657D254D4D55151 PUSH1 0x92 SHL PUSH1 0x44 DUP3 ADD MSTORE PUSH1 0x64 ADD PUSH2 0xED JUMP JUMPDEST PUSH1 0x0 DUP2 DUP2 MSTORE PUSH1 0x20 DUP2 SWAP1 MSTORE PUSH1 0x40 DUP1 DUP3 KECCAK256 DUP1 SLOAD PUSH1 0xFF NOT AND PUSH1 0x1 OR SWAP1 SSTORE MLOAD CALLER SWAP2 DUP4 SWAP2 PUSH32 0x11FB9F283C08B0122FE14BF3B5692D38F07282003F545F4BBC8B766DDCBDA832 SWAP2 SWAP1 LOG3 POP JUMP JUMPDEST PUSH1 0x0 PUSH1 0x20 DUP3 DUP5 SUB SLT ISZERO PUSH2 0x19E JUMPI PUSH1 0x0 DUP1 REVERT JUMPDEST POP CALLDATALOAD SWAP2 SWAP1 POP JUMP INVALID LOG2 PUSH5 0x6970667358 0x22 SLT KECCAK256 EQ SDIV PUSH16 0x80498AB839EC0E4FAA88A9D79A725E74 SWAP15 RETURNDATACOPY 0xEF EXTCODECOPY 0xCF DUP7 SLT SWAP8 SWAP6 PUSH28 0x4D13A264736F6C634300081800330000000000000000000000000000 "},"methodIdentifiers":{"issueCertificate(bytes32)":"a1f81824","issued(bytes32)":"c59a138b","verifyCertificate(bytes32)":"850c1768"}}}}}