{
  "_format": "hh-sol-artifact-1",
  "contractName": "DAOGovernance",
  "sourceName": "contracts/DAOGovernance.sol",
  "abi": [
    {
      "inputs": [],
      "stateMutability": "nonpayable",
      "type": "constructor"
    },
    {
      "anonymous": false,
      "inputs": [
        {
          "indexed": true,
          "internalType": "bytes32",
          "name": "proposalHash",
          "type": "bytes32"
        }
      ],
      "name": "ProposalCreated",
      "type": "event"
    },
    {
      "anonymous": false,
      "inputs": [
        {
          "indexed": true,
          "internalType": "bytes32",
          "name": "proposalHash",
          "type": "bytes32"
        },
        {
          "indexed": true,
          "internalType": "address",
          "name": "voter",
          "type": "address"
        },
        {
          "indexed": false,
          "internalType": "bool",
          "name": "support",
          "type": "bool"
        }
      ],
      "name": "VoteRecorded",
      "type": "event"
    },
    {
      "inputs": [
        {
          "internalType": "bytes32",
          "name": "proposalHash",
          "type": "bytes32"
        }
      ],
      "name": "createProposal",
      "outputs": [],
      "stateMutability": "nonpayable",
      "type": "function"
    },
    {
      "inputs": [
        {
          "internalType": "bytes32",
          "name": "proposalHash",
          "type": "bytes32"
        }
      ],
      "name": "getCounts",
      "outputs": [
        {
          "internalType": "uint256",
          "name": "forVotes",
          "type": "uint256"
        },
        {
          "internalType": "uint256",
          "name": "againstVotes",
          "type": "uint256"
        }
      ],
      "stateMutability": "view",
      "type": "function"
    },
    {
      "inputs": [
        {
          "internalType": "bytes32",
          "name": "proposalHash",
          "type": "bytes32"
        },
        {
          "internalType": "address",
          "name": "voter",
          "type": "address"
        }
      ],
      "name": "hasVoted",
      "outputs": [
        {
          "internalType": "bool",
          "name": "",
          "type": "bool"
        }
      ],
      "stateMutability": "view",
      "type": "function"
    },
    {
      "inputs": [],
      "name": "owner",
      "outputs": [
        {
          "internalType": "address",
          "name": "",
          "type": "address"
        }
      ],
      "stateMutability": "view",
      "type": "function"
    },
    {
      "inputs": [
        {
          "internalType": "bytes32",
          "name": "proposalHash",
          "type": "bytes32"
        },
        {
          "internalType": "address",
          "name": "voter",
          "type": "address"
        },
        {
          "internalType": "bool",
          "name": "support",
          "type": "bool"
        }
      ],
      "name": "recordVote",
      "outputs": [],
      "stateMutability": "nonpayable",
      "type": "function"
    }
  ],
  "bytecode": "0x608060405234801561001057600080fd5b50600080546001600160a01b03191633179055610627806100326000396000f3fe608060405234801561001057600080fd5b50600436106100575760003560e01c806316902ee81461005c5780632542bf06146100895780638da5cb5b1461009e578063aadc3b72146100c9578063d0d6555e146100ec575b600080fd5b61006f61006a36600461052a565b6100ff565b604080519283526020830191909152015b60405180910390f35b61009c61009736600461052a565b610199565b005b6000546100b1906001600160a01b031681565b6040516001600160a01b039091168152602001610080565b6100dc6100d736600461055f565b6102e3565b6040519015158152602001610080565b61009c6100fa36600461058b565b610310565b600081815260016020526040812060020154819060ff1661015a5760405162461bcd60e51b815260206004820152601060248201526f50524f504f53414c5f4d495353494e4760801b60448201526064015b60405180910390fd5b5050600090815260016020818152604092839020835160608101855281548082529382015492810183905260029091015460ff16151593019290925291565b6000546001600160a01b031633146101e05760405162461bcd60e51b815260206004820152600a60248201526927a7262cafa7aba722a960b11b6044820152606401610151565b8061021c5760405162461bcd60e51b815260206004820152600c60248201526b0929cac82989288be9082a6960a31b6044820152606401610151565b60008181526001602052604090206002015460ff16156102705760405162461bcd60e51b815260206004820152600f60248201526e50524f504f53414c5f45584953545360881b6044820152606401610151565b604080516060810182526000808252602080830182815260018486018181528785529281905285842094518555905190840155516002909201805460ff191692151592909217909155905182917f288a29bca04edb18fcdb2c76d6e3b03b8a137c85c70d1a4cb8aacfa868d6051091a250565b60008281526002602090815260408083206001600160a01b038516845290915290205460ff165b92915050565b6000546001600160a01b031633146103575760405162461bcd60e51b815260206004820152600a60248201526927a7262cafa7aba722a960b11b6044820152606401610151565b60008381526001602052604090206002015460ff166103ab5760405162461bcd60e51b815260206004820152601060248201526f50524f504f53414c5f4d495353494e4760801b6044820152606401610151565b6001600160a01b0382166103f15760405162461bcd60e51b815260206004820152600d60248201526c24a72b20a624a22fab27aa22a960991b6044820152606401610151565b60008381526002602090815260408083206001600160a01b038616845290915290205460ff16156104545760405162461bcd60e51b815260206004820152600d60248201526c1053149150511657d593d51151609a1b6044820152606401610151565b60008381526002602090815260408083206001600160a01b03861684529091529020805460ff1916600117905580156104b357600083815260016020819052604082208054919290916104a89084906105d0565b909155506104df9050565b600180600085815260200190815260200160002060010160008282546104d991906105d0565b90915550505b816001600160a01b0316837f1ac50b680fe2903f713091009c8bd7b4c8bb45056124d01758e744b30276e7998360405161051d911515815260200190565b60405180910390a3505050565b60006020828403121561053c57600080fd5b5035919050565b80356001600160a01b038116811461055a57600080fd5b919050565b6000806040838503121561057257600080fd5b8235915061058260208401610543565b90509250929050565b6000806000606084860312156105a057600080fd5b833592506105b060208501610543565b9150604084013580151581146105c557600080fd5b809150509250925092565b8082018082111561030a57634e487b7160e01b600052601160045260246000fdfea2646970667358221220f3d4bd76d822d4eeec3f7f5e60d6153f315e8b45606f8b16b8701f0223097ffc64736f6c63430008180033",
  "linkReferences": {},
  "deployedLinkReferences": {}
}