{
  "_format": "hh-sol-artifact-1",
  "contractName": "CertificateRegistry",
  "sourceName": "contracts/CertificateRegistry.sol",
  "abi": [
    {
      "anonymous": false,
      "inputs": [
        {
          "indexed": true,
          "internalType": "bytes32",
          "name": "certHash",
          "type": "bytes32"
        },
        {
          "indexed": true,
          "internalType": "address",
          "name": "issuer",
          "type": "address"
        }
      ],
      "name": "CertificateIssued",
      "type": "event"
    },
    {
      "inputs": [
        {
          "internalType": "bytes32",
          "name": "certHash",
          "type": "bytes32"
        }
      ],
      "name": "issueCertificate",
      "outputs": [],
      "stateMutability": "nonpayable",
      "type": "function"
    },
    {
      "inputs": [
        {
          "internalType": "bytes32",
          "name": "",
          "type": "bytes32"
        }
      ],
      "name": "issued",
      "outputs": [
        {
          "internalType": "bool",
          "name": "",
          "type": "bool"
        }
      ],
      "stateMutability": "view",
      "type": "function"
    },
    {
      "inputs": [
        {
          "internalType": "bytes32",
          "name": "certHash",
          "type": "bytes32"
        }
      ],
      "name": "verifyCertificate",
      "outputs": [
        {
          "internalType": "bool",
          "name": "",
          "type": "bool"
        }
      ],
      "stateMutability": "view",
      "type": "function"
    }
  ],
  "bytecode": "0x608060405234801561001057600080fd5b506101db806100206000396000f3fe608060405234801561001057600080fd5b50600436106100415760003560e01c8063850c176814610046578063a1f818241461007d578063c59a138b14610092575b600080fd5b61006961005436600461018c565b60009081526020819052604090205460ff1690565b604051901515815260200160405180910390f35b61009061008b36600461018c565b6100b5565b005b6100696100a036600461018c565b60006020819052908152604090205460ff1681565b806100f65760405162461bcd60e51b815260206004820152600c60248201526b0929cac82989288be9082a6960a31b60448201526064015b60405180910390fd5b60008181526020819052604090205460ff16156101465760405162461bcd60e51b815260206004820152600e60248201526d1053149150511657d254d4d5515160921b60448201526064016100ed565b600081815260208190526040808220805460ff1916600117905551339183917f11fb9f283c08b0122fe14bf3b5692d38f07282003f545f4bbc8b766ddcbda8329190a350565b60006020828403121561019e57600080fd5b503591905056fea264697066735822122014056f80498ab839ec0e4faa88a9d79a725e749e3eef3ccf861297957b4d13a264736f6c63430008180033",
  "linkReferences": {},
  "deployedLinkReferences": {}
}